:020000040800F2
:10000000083E002011020008D7150008D51400088A
:10001000D51500086F0300080D1700080000000048
:10002000000000000000000000000000790100084E
:100030007103000800000000BD010008D915000888
:100040002B0200082B0200082B0200082B020008DC
:100050002B0200082B0200082B0200082B020008CC
:100060002B0200082B0200082B0200082B020008BC
:100070002B0200082B0200082B0200082B020008AC
:100080002B0200082B0200082B0200082B0200089C
:100090002B0200082B0200082B0200082B0200088C
:1000A0002B0200082B0200082B0200082B0200087C
:1000B0002B0200082B0200082B0200082B0200086C
:1000C0002B0200082B0200082B0200082B0200085C
:1000D0002B0200082B0200082B0200082B0200084C
:1000E0002B0200082B0200082B020008DFF810D0BA
:1000F00000F000F9004800474D170008AFF30080FA
:10010000083E00200246D2E84F0F411CC2E8431FC0
:1001100003B1F8E77047024652E8000F411C42E87D
:10012000001303B1F8E77047024652E8000F42E8B7
:10013000001303B1F9E77047024652E8000F83014C
:1001400003D3BFF32F8F0020704700F00040084317
:1001500042E8000303B1F0E77047024652E8000F9F
:10016000800103D2BFF32F8F0020704742E80013B5
:1001700003B1F3E701207047224B19680868B0E823
:10018000F00F80F30988BFF36F8F4FF0000080F30A
:1001900011884EF00D0E7047000000000648006800
:1001A000006880F3088862B661B6BFF34F8FBFF373
:1001B0006F8F00DF00BF00BF08ED00E0EFF30980A4
:1001C000BFF36F8F0F4B1A6820E9F00F106008B56E
:1001D0004FF0100080F31188BFF34F8FBFF36F8F84
:1001E00002F086F94FF0000080F31188BDE8084066
:1001F00019680868B0E8F00F80F30988BFF36F8FC3
:10020000704700BFE8000020EFF305807047000052
:100210000648804706480047FEE7FEE7FEE7FEE7A0
:10022000FEE7FEE7FEE7FEE7FEE7FEE75116000801
:10023000ED00000840EA01039B0703D009E008C96C
:10024000121F08C0042AFAD203E011F8013B00F89B
:10025000013B521EF9D27047D2B201E000F8012BE7
:10026000491EFBD270470022F6E710B513460A4636
:1002700004461946FFF7F0FF204610BD96230022E2
:10028000114600F009B80029A8BF7047401C49007A
:1002900008BF20F00100704710B4B0FA80FC00FAEB
:1002A0000CF050EA010404BF10BC704749B1CCF116
:1002B000200421FA04F411FA0CF118BF01212143A2
:1002C0000843A3EB0C01CB1D4FEA00614FEA10205D
:1002D00042BF002010BC704700EBC35010440029FF
:1002E000A4BF10BC7047401C490008BF20F00100AB
:1002F00010BC7047064C074D06E0E06840F0010373
:1003000094E8070098471034AC42F6D3FFF7F2FEAA
:10031000B82D0008D82D000870B58C1810F8015BB6
:1003200015F0070301D110F8013B2A1106D110F88E
:10033000012B03E010F8016B01F8016B5B1EF9D192
:100340002B0705D40023521E0DD401F8013BFAE718
:1003500010F8013BCB1A921C03E013F8015B01F883
:10036000015B521EF9D5A142D8D3002070BDFEE733
:10037000704772B6FEE700000749097851B1064997
:10038000C0F3C6228039C0F30220895CC14001F06D
:100390000100704700207047804C00202DE9F0419B
:1003A0000A4D05F11806AF6900F086F904460146CA
:1003B0003046FFF7B9FEB842F5D1844203D2034874
:1003C0001030FFF7A8FE2046BDE8F081804C0020E9
:1003D00070B514460D460646FFF7CEFF88B1FFF70D
:1003E000DDFF0146B2B2EFF3058008B14FF4002003
:1003F000104323462A46BDE8704040F0407000F0AC
:100400003BB8012070BD00002DE9F0479846174623
:1004100089460446DDF820A0FFF7AEFF48B1FFF79C
:10042000BDFF0646A0B2EFF3058129B14FF40025C8
:1004300003E00120BDE8F087002505430C48FFF7E5
:1004400061FE4FF4E02101EA0044254345F080704D
:100450003B464A46314600F00FF80028EAD00548EE
:100460005346204342463146BDE8F04700F004B809
:10047000814C0020010000022DE9FF5F8B464FF008
:10048000805000EADB08400007259A46914641006B
:1004900000EA990701EA5A062048FFF73CFE0146A8
:1004A00000F03F021E48890900EB02144FF470006F
:1004B00000EA01510098084340EA080038433043FD
:1004C00040F0406104F10C00FFF736FE41011CD5FD
:1004D00080F0044101F000402BF000420243226012
:1004E00029F00042024362602AF00042024304F114
:1004F0000C00A260FFF731FE48B10848001DFFF76D
:100500000AFE012004B0BDE8F09F6D1EC4D103486F
:100510000830FFF700FE0020F4E70000844C0020C4
:10052000004800202DE9F0478146FF2901D2FF2A2B
:1005300002D30020BDE8F0870024104D20464FF084
:10054000010A0AFA00F3564613EA090F0FD00B46C8
:10055000B2460AE004EBD30603F00708AF5D0AFADF
:1005600008FC47EA0C07AF555B1C9342F2D9401CCC
:1005700020340428E5D30120DCE70000004C0020F3
:100580002DE9F0473C4C88468146002525708021A6
:10059000A4F18000FFF767FE384B4FF6FF76182274
:1005A000304641F2210700BF13F8011B80EA012009
:1005B0005FF008015FEA004C06EA400000D5784091
:1005C000491EF7D1521EEFD12D4A236A01219342D1
:1005D00001D0226202E06288824202D06080E16142
:1005E00037E0E069401CE061012832D0254B002053
:1005F00003EB0011CA68560102D522F04062CA60BE
:10060000401C4028F4D3E06901282BD000F060F8AA
:100610000646DEB1FE2200214846FFF783FFEF22A7
:1006200011460F20FFF77EFFFE2211460420FFF740
:1006300079FFFFF7B3FE014600231348E269FFF795
:100640001BFFB8F1000F01D000F020F83046BDE8E4
:10065000F08765706560A5604FF480610948E560CA
:10066000FFF701FE00F034F8061E01D000F02AF872
:10067000C4E905052561CCE7804C00207C2D0008ED
:100680006B27A5E10048002000FF0003084810B5D3
:10069000017809B1012010BD01210170FFF77EFE34
:1006A000014600231A460348FFF7E6FEF2E7000082
:1006B000804C002001FF00030148406870470000A3
:1006C000001000E00148006870470000B8000020FA
:1006D0000548016841F0807101600448016841F0FB
:1006E0000101016001207047FCED00E0001000E016
:1006F0000A4601460148FFF76BBE000001F4020004
:100700000A4601464FF43D30FFF762BE0146002223
:100710000148FFF75DBE000017F10200014600220C
:100720000148FFF755BE000018F102000146002203
:100730000148FFF74DBE000000F102000146002213
:100740004FF20110FFF744BE014600220148FFF7B7
:100750003FBE00000CF10200014600224FF20F10D4
:10076000FFF736BE014600220148FFF731BE000008
:100770000AF10200014600224FF20B10FFF728BEDB
:10078000014600220148FFF723BE000010F10200DD
:10079000014600224FF21110FFF71ABE10B5194999
:1007A00010B10020087002E00878002829D101204B
:1007B00008700146FFF7E4FEF02211460520FFF71E
:1007C000B1FEF12211460520FFF7ACFEF2221146E0
:1007D0000520FFF7A7FEF32211460520FFF7A2FE32
:1007E000F42211460520FFF79DFEF5221146052053
:1007F000FFF798FE0022BDE8104011460248FFF7BF
:10080000E7BD10BDC0000020FFF00200014600223D
:100810000148FFF7DDBD00000FF002000146002295
:100820000148FFF7D5BD000010F00200014600228C
:100830004FF43C30FFF7CCBD014600220148FFF7E2
:10084000C7BD000004F00200014600220148FFF786
:10085000BFBD000003F00200014600220148FFF77F
:10086000B7BD000009F003000A4601460148FFF742
:10087000AFBD00000EF002000A4601460148FFF736
:10088000A7BD00000CF00200014600220148FFF75E
:100890009FBD00000BF0020008B500230093134633
:1008A0000A4601460148FFF7AFFD08BD03F202000A
:1008B00008B5009313460A4601460248FFF7A4FD17
:1008C00008BD000002F20200014600220148FFF7C5
:1008D0007FBD000004F20200F0B590F820500468DB
:1008E000A468012D05D0022D03D0416A41F4802176
:1008F0005DE014F0406F01D1E50055D5C4F301640B
:10090000022C03D9416A41F4000150E00125A540C1
:100910001D608D684FF4C0739DB1CE6835434E683D
:1009200045EAC605066803EB0417F5514FF4C27596
:10093000076805EB04150E697E51097D012905D074
:1009400009E00E88CD6845EA4655EBE701684E5947
:1009500046F480764E511179D579567941EA056190
:1009600095792D0445EA062529434FF4C676056896
:1009700006EB0416A9511178D57841EA05619578FE
:1009800052782D0445EA022211434FF4C4750268DF
:1009900005EB04155151006803EB0411425842F075
:1009A000010242500020F0BD416A41F40011416251
:1009B0000120F0BD0246002092F82010012901D04C
:1009C00002290CD111688A68520100D501208A6879
:1009D000120100D5401C8968C90000D5401C704731
:1009E00070B5040003D094F8200010B104E0012099
:1009F00070BD204600F082F82068016841F00101D6
:100A0000016000F0E7F90546052604E000F0E2F990
:100A1000401B0A2811D820684068C007F6D020681B
:100A2000016821F00201016000F0D4F905460BE0F5
:100A300000F0D0F9401B0A2806D9606A40F4003063
:100A4000606284F82060D2E7206840688007EFD4B5
:100A5000207E0128206801683DD021F080010160DE
:100A6000607E01282068016838D021F040010160D3
:100A7000A07E01282068016833D021F020010160A8
:100A8000E07E0128206801682ED041F0100101604D
:100A9000207F01282068016829D021F00801016029
:100AA000607F01282068016824D021F004010160E2
:100AB000D4E902010843D4E90412114308436168F0
:100AC000491E08432168C86100206062012084F843
:100AD0002000002070BD41F08001C0E741F04001DE
:100AE000C5E741F02001CAE721F01001CFE741F04E
:100AF0000801D4E741F00401D9E7000010B586B041
:100B000000210091019102910391006818498842E7
:100B10002BD11848C16941F00071C161C16901F070
:100B200000710491816941F0080181618069124C72
:100B300000F0080004904FF4807000906946204651
:100B400000F04AF860150090022001900320039005
:100B50006946204600F040F80848416821F4C04149
:100B600041F0E06141F48041416006B010BD0000F9
:100B70000064004000100240000C014000000140F1
:100B800070B5044690F82000012804D0606A40F453
:100B90000020606218E0022084F8200020680168CC
:100BA00021F00101016000F015F905460EE000BFDB
:100BB00000F010F9401B0A2808D9606A40F40030A0
:100BC0006062052084F82000012070BD2068406824
:100BD000C007EDD1606270BD2DE9F84FDFF8B89124
:100BE000002409F1040A0AF1040B23460F270BF134
:100BF000040EC9E00125A5402A40AA427DD1674ED6
:100C0000D1F804C0ACEB0608B44532D014DCBCF11A
:100C1000030F3AD009DCBCF1000F2AD0BCF1010F60
:100C20001CD0BCF1020F31D11DE0BCF1110F17D067
:100C3000BCF1120F2AD119E0B8F5881F19D006DCD3
:100C4000B8F5803F15D0B8F5801F1FD111E0B8F579
:100C5000001F0ED0B8F5041F18D10AE0CB6815E0CC
:100C6000CB681B1D12E0CB6808330FE0CB680C3358
:100C70000CE08B682BB1012B4FF0080303D04561CA
:100C800004E0042302E0056100E00023FF2A01D80C
:100C9000064601E000F104064FEA840501D9A5F1FA
:100CA0002005D6F8008007FA05FC28EA0C0803FAAC
:100CB00005F548EA0508C6F800804D68ED0062D5E4
:100CC000374DAE6946F00106AE61AD6924F003060A
:100CD00005F001050095334D06EB050CDCF80850D6
:100CE000A607360F07FA06F825EA0805DFF8B880E8
:100CF000404503D14FF0000817E044E0DFF8AC8036
:100D0000404502D14FF001080FE0DFF8A4804045D4
:100D100002D14FF0020808E0DFF89880404502D188
:100D20004FF0030801E04FF0040808FA06F848EA1B
:100D30000508CCF808804D68D9F80060ED034D46F1
:100D400001D5164300E096432E604D68DAF8006046
:100D5000AD03554601D5164300E096432E604D681D
:100D6000DBF80060ED025D4601D5164300E09643D6
:100D70002E604D68DEF80060AD02754601D5164361
:100D800000E096432E60641C0D682A46E5407FF41F
:100D900031AFBDE8F88F00000004014000001110E1
:100DA000001002400000014000080140000C01401A
:100DB0000010014000140140C26821EA02030A4009
:100DC00043EA0241016170470AB1016170470904B9
:100DD000FBE700000148806870470000AC0000207D
:100DE000074810B5016841F010010160032000F0D0
:100DF00065F8002000F006F800F024F8002010BD8F
:100E00000020024070B50D4D04464FF47A712878E9
:100E1000B1FBF0F00A490968B1FBF0F000F0DCFA30
:100E200048B9102C07D200222146501E00F026F8A7
:100E300000206C6070BD012070BD0000AC0000207F
:100E4000B80000200B4808B5816941F001018161BB
:100E5000816901F001010091C16941F08051C161D6
:100E6000C06900F0805000900348416821F0E061C3
:100E7000416008BD0010024000000140F0B40E4B7C
:100E80001B680C46C3F30223C3F10705042D00D9E8
:100E90000425191D072901D2002300E0DB1E0126CD
:100EA00006FA05F1491E214099409E40761E1640E3
:100EB0003143F0BC00F02BBC0CED00E0064900F023
:100EC000070208684FF6FF03184040EA0220034A71
:100ED00010430860704700000CED00E00000FA05C8
:100EE0002DE9F0470F46050061D0434E306800F011
:100EF0000700B84209D2306820F00700384330605C
:100F0000306800F00700B84251D128683B4C810797
:100F100012D5400703D5606840F4E060606028782F
:100F2000000703D5606840F4605060606068A9689D
:100F300020F0F000084360602878C00728D0686877
:100F4000012810D02168022810D0890700292EDA44
:100F5000616821F0030101436160FFF73BFF8046B8
:100F600041F288390DE021688903EFE78901EDE757
:100F7000FFF730FFA0EB0801494502D90320BDE887
:100F8000F0876068696800F00C00B0EB810FEFD16A
:100F9000306800F00700B8420BD9306820F0070035
:100FA00038433060306800F00700B84201D00120BB
:100FB000E5E72878400705D56068E96820F4E06037
:100FC000084360602878000706D56068296920F426
:100FD000605040EAC100606000F038F86168084A7B
:100FE000C1F30311515CC840064908600648006817
:100FF000FFF708FF0020C2E7002002400010024077
:10100000642D0008B8000020B00000200448054905
:1010100000684968044AC1F30221515CC840704726
:10102000B800002000100240742D00080448054953
:1010300000684968044AC1F3C221515CC840704746
:10104000B800002000100240742D000812A185B0E5
:101050000FC98DE80F0014A0144A0068049051686D
:10106000134801F00C03042B10D0082B0ED1C1F350
:101070008343C9031DF803000AD5516804AAC1F3CC
:101080004041515C0A4A5043B0FBF1F005B0704753
:1010900008494843FAE70000020304050607080967
:1010A0000A0B0C0D0E0F1010010200000010024080
:1010B00000127A0000093D002DE9F84F040070D0BD
:1010C0002078C04DC00749D06868C0F3810001286E
:1010D00007D06868C0F38100022809D16868C0039E
:1010E00006D52868800339D560680028E7D035E048
:1010F0006068B0F5803F0BD010B1B0F5A02F11D0D3
:10110000286820F480302860286820F4802002E0DD
:10111000286840F480302860606890B1FFF75AFE7C
:1011200006460AE0286840F480202860F0E700BF07
:10113000FFF750FE801B642873D828688003F7D51A
:101140000CE0FFF747FE064605E000BFFFF742FE52
:10115000801B6428F0D828688003F7D420789A4E42
:1011600080074FF001094FF0000839D5686810F08A
:101170000C0F07D06868C0F38100022809D16868A5
:10118000C00306D42868800714D52069012808D137
:1011900010E02069B0B1C6F80090FFF71BFE0746CB
:1011A00005E00AE1FFF716FEC01B0228C4D8286834
:1011B0008007F7D52868616920F0F80040EAC1008F
:1011C00028600DE0C6F80080FFF704FE074604E043
:1011D000FFF700FEC01B022823D828688007F7D439
:1011E000207800072CD57948A169D9B1C0F80090C2
:1011F000FFF7F0FD074604E0FFF7ECFDC01B0228F7
:101200000FD8686A8007F7D571484FF4FA51006823
:10121000B0FBF1F0009000BF0098411E0091FAD29F
:101220000EE080E0C0F80080FFF7D4FD074604E040
:10123000FFF7D0FDC01B022875D8686A8007F7D475
:101240002078400760D5E8690027C00008D4E86925
:1012500040F08050E861E869012700F0805000907C
:101260005C480168C90513D40168834641F4807164
:101270000160FFF7AFFD824606E000BFFFF7AAFD61
:10128000A0EB0A0064284ED8DBF80000C005F5D5B5
:10129000E06801280AD008B1052813D0286A20F098
:1012A00001002862286A20F0040002E0286A40F069
:1012B00001002862E06841F2883B98B1FFF78AFD9F
:1012C00082460BE0286A40F004002862EEE700BF87
:1012D000FFF780FDA0EB0A0159455AD8286A80071C
:1012E000F6D50CE0FFF776FD824605E0FFF772FDCC
:1012F000A0EB0A0159454CD8286A8007F6D41FB1E3
:10130000E86920F08050E861E06988B36968C1F35A
:101310008101022944D00228C6F8608004D0FFF77A
:1013200059FD044638E034E0FFF754FD074604E079
:10133000FFF750FDC01B02282BD828688001F7D486
:10134000206AB0F5803F05D16868A16820F40030BC
:1013500008436860D4E908010843696821F47411FE
:1013600008436860C6F86090FFF734FD044606E065
:1013700025E000BFFFF72EFD001B022809D82868D2
:101380008001F7D51BE000BFFFF724FD001B0228FA
:1013900002D90320BDE8F88F28688001F4D40EE05C
:1013A0000128F7D06868226A00F48031914204D1A4
:1013B000616A00F47010884201D00120EAE7002041
:1013C000E8E7000000100240000042428004424270
:1013D000B80000200070004010B5401EB0F1807FC2
:1013E00001D3012010BD4FF0E02460610F21601790
:1013F00000F08DF90020A06107202061002010BDC1
:1014000070B5040004D094F83D00002510B106E04A
:10141000012070BD84F83C50204600F023F82420C1
:1014200084F83D002068C16821F40051C160204665
:1014300000F010F92068016921F4904101612068F1
:10144000416921F02A0141612068C16841F40051DD
:10145000C1602564202084F83D0084F83E0000200F
:1014600070BD000030B585B0002400940194029452
:10147000039400681449884223D11448C16941F497
:101480000031C161C16901F400310491816941F009
:101490000401816180690E4D00F004000490042075
:1014A0000090022001900320039069462846FFF730
:1014B00093FB0820CDE90004694628460294FFF713
:1014C0008BFB05B030BD000000440040001002401E
:1014D00000080140FEE700000F4810B50D4901600B
:1014E0000421416000214FF440228160C0E90312D1
:1014F00092004261017641768176C176017741772B
:10150000FFF76EFA002803D0BDE81040FEF731BFA8
:1015100010BD0000006400403801002070B586B0A6
:1015200000241C480094019402940394816941F0C2
:1015300010018161816901F010010491816941F01C
:1015400020018161816901F020010491816941F0EC
:1015500004018161816901F004010491816941F014
:101560000801816180690C4E00F008004FF40055BD
:101570000490002229463046FFF726FC0120009502
:10158000CDE901040220039069463046FFF724FBB1
:1015900006B070BD00100240001001400C4810B5AC
:1015A0000A4901604FF4E1314160002181600C2261
:1015B000C160C0E904128161C161FFF721FF002809
:1015C00003D0BDE81040FEF7D4BE10BD004400407B
:1015D00060010020FEE7FEE710B54FF0E020006953
:1015E00001F0FAF9012803D0BDE8104000F0DEBF99
:1015F00010BD30B58FB028216846FEF734FE1421A7
:101600000AA8FEF730FE01210804CDE900100024ED
:10161000029402250491CDE907504FF4E01009909F
:101620006846FFF749FD08B172B6FEE70F20CDE925
:101630000A054FF48060CDE90C4002210AA80E94FF
:10164000FFF74EFC002801D072B6FEE70FB030BDA8
:101650007047000070B5044600680169E26821F433
:101660004051114301612169A06808436169084341
:101670002168CA6841F20C639A430243CA60206839
:101680004169A26921F44071114341611E492068FA
:10169000884202D1FFF7CAFC01E0FFF7B7FC00EB7C
:1016A000C00101EB0012606864218000B2FBF0F31E
:1016B000B3FBF1F36FF018067343B2FBF0F5B2FB26
:1016C000F0F605EB8305322303EB0515B5FBF1F5C9
:1016D000B6FBF1F605F0F00505EB0615B2FBF0F6EA
:1016E000B2FBF0F0B0FBF1F06FF01802504306EBE4
:1016F000800003EB0010B0FBF1F0216800F00F0058
:101700002844886070BD000000380140FEE70907EA
:10171000090E002804DB00F1E02080F80014704777
:1017200000F00F0000F1E02080F8141D704702E087
:1017300008C8121F08C1002AFAD17047704700205C
:1017400001E001C1121F002AFBD17047FFF748FBDF
:10175000FFF74FFFFFF7E2FEFFF7BEFEFFF71EFFAA
:101760000A48FFF70DFA00F035F8094A0021094848
:1017700000F072F8084C064A0021606024320748E5
:1017800000F06AF8A06000F043F8FEE7380100209E
:101790001C2D00083121000800000020B92100089C
:1017A00010B5EFF3058179B9EFF3108111B9EFF3BB
:1017B000118119B106490968022905D0002408B130
:1017C00000F0FEFD204610BD6FF00504FAE70000B2
:1017D000BC00002010B5EFF3058068B9EFF310816D
:1017E0000A4C206811B9EFF3118109B1022803D026
:1017F00028B14FF0FF3010BD6FF0050010BD002084
:10180000FEF7CCFF01202060002010BDBC000020AE
:1018100010B5EFF3058070B9EFF310820C4908683A
:1018200012B9EFF311820AB1022804D0012805D0C1
:101830004FF0FF3010BD6FF0050010BD054A0020CD
:1018400082F8140D0220086000F00CFE002010BD8C
:10185000BC0000200BE000E02DE9FF414FEA01034E
:101860004FF00005EFF30581039599BBEFF310816D
:1018700011B9EFF3118119B11F490968022938D054
:1018800040B38026182100244AB3176807B13C46AC
:1018900097691FB139467F1E382F02D21779FF078B
:1018A00003D0002004B0BDE8F081576907B1BE083D
:1018B000D2F808C0BCF1000F0DD0D5685C2D18D34C
:1018C00012693AB137B18DE806103246214601F06F
:1018D00068F803900DE0D7685FB912694AB903AAA6
:1018E000CDE90012B2B2214601F02EF8012800D055
:1018F00003950398D6E70000BC0000202DE9F041D5
:10190000134C0F460546E6682068001D00F08AFC6F
:10191000681C07D137B12168BDE8F0410D48091DA9
:1019200000F0CFBC20683544B5424560216805D23F
:10193000A06BBDE8F041091D00F0ABBC606B091D58
:1019400000F0A7FCA06A854200D2A562BDE8F08144
:10195000E80000202C3900202DE9F041054600F078
:10196000BDFC314CA068401CA06020682F4F10B116
:10197000606930B32BE02560A068012827D10026DC
:1019800006EB860007EB800000F075FC761C382E15
:10199000F6D3274800F06FFC2548143000F06BFCAC
:1019A0002348283000F067FC21483C3000F063FCFD
:1019B0001F48503000F05FFC1D4860631430A06386
:1019C00005E02068E96AC06A884200D82560606A3C
:1019D000401C606268642846FEF728FF2846FEF730
:1019E00015FFE86A2169884200D9206100EB800078
:1019F00007EB8000291D00F064FC2846FEF70EFF6F
:101A000000F07AFC606900280CD02068E96AC06A9E
:101A1000884207D207494FF080500860BFF34F8FCC
:101A2000BFF36F8FBDE8F081E80000207C34002018
:101A3000DC38002004ED00E038B500F04FFC0E4C1F
:101A40002068A8B90D4800F016FC0C48143000F0CE
:101A500012FC0A48E06014302061084B0020A03BD3
:101A6000009003F150021021052000F0B5FD206028
:101A7000BDE8384000F040BC24010020E0390020DF
:101A800030B4026C0B46002A0BD0C1681144C1600F
:101A90008468A14201D30168C16030BC1846FEF7DA
:101AA000C9BB30BC70472DE9F041856B1746044631
:101AB0000026026C82B1C7B1E068FEF7BBFBE168AB
:101AC000206C091AE1602268914202D2A168081ACA
:101AD000E060022F16D017E02068A8B9A06800F0D7
:101AE000F1FF06460020A0600EE06068FEF7A2FB52
:101AF000216C606808446060A168884204D3206853
:101B0000606001E005B16D1E6D1CA5633046BDE847
:101B1000F08110B5044690F8590030B1012808D181
:101B20002046BDE8104000F0F1BB206B00F0EEFB5A
:101B3000F6E710BD0F4842F6E061420705D0C01D30
:101B40000C4A20F00700821A891A0B4A002301442C
:101B5000C2E900030839183A21F0070111604B600F
:101B60000B600B1AC0E9001393604FF00040536004
:101B7000506170479C050020DC000020144E154C7D
:101B8000A6F29C474FF08058DFF84C9012E000BF5F
:101B900000F0A4FBF068C568281D00F043FBA068B6
:101BA000401EA0606068401E606000F0A5FB2846F3
:101BB000FFF7AFFF60680028EAD138680128F9D93B
:101BC000C9F80080BFF34F8FBFF36F8FF2E70000BB
:101BD00018390020E800002004ED00E070B51D4633
:101BE000049C71B1C4F80020C4E90F010121204612
:101BF00000F004FD84F84C502046BDE87040FEF72C
:101C000095BD2460F0E700002DE9F05F8846DDE92E
:101C10000B941546834691009A460A9EA522206B96
:101C2000FEF71AFB6FF0030101EB8501206B002525
:101C3000084420F00707B8F1000F0FD05FF0000054
:101C4000221818F8001082F8341018F8001011B19A
:101C5000401C1028F4D384F8435001E084F8345039
:101C6000382E00D33726E662C4E91365201D00F044
:101C70000DFB04F1180000F009FB2461C6F13800E7
:101C80006462A061656584F85850524659463846EA
:101C900000F020FA2060B9F1000F01D0C9F800402F
:101CA000BDE8F09F30B5114900E011460A68824254
:101CB000FBD34B685C18844203D1406818444860E9
:101CC000084643681C18944209D1084C183C246803
:101CD000A24209D052681A4442600A68126802603F
:101CE000814200D0086030BD0460F9E7DC000020CC
:101CF00070B5002441600B4D0061914206D8D11AA5
:101D00008269914206D2011D286907E09A4203D2F6
:101D1000994201D3012403E0011DE86800F0B9FAFB
:101D2000204670BD2401002010B5044600F0D6FA0C
:101D3000A06B28B15FF0000400F0DEFA204610BD71
:101D40000124F9E730B589B0384D65E004980028E2
:101D500006DADDE90601059A9047049800285BDB66
:101D6000069C606910B1201D00F05CFADDE90412E8
:101D70002046FEF791FD03A800F0C4F8024604983F
:101D80000A2849D2DFE800F0050505282E3C0505A4
:101D9000282E94F8280040F0010084F828000598C7
:101DA000A169034601442046FFF7A2FF38B3216A28
:101DB000204688472046FEF787FD94F82800400714
:101DC0002AD5002000900598A169002342181946E1
:101DD000204600F069FF1FE014F8280F20F00100F2
:101DE000207019E094F82800134640F0010084F8B0
:101DF00028000598A06181182046FFF779FF0BE0C5
:101E000094F82800810703D4204600F07FFA03E00D
:101E100020F0010084F82800002204A9286800F0BE
:101E2000E9FC002892D109B030BD00002401002057
:101E30002DE9FC410F46054600F052FB01A800F0D9
:101E400061F80446019818B100F0A6FEBDE8FC81D7
:101E5000224EAFB130690068A8B30027291B3A466B
:101E6000306800F08BFA00F097FE0028EED11C4994
:101E70004FF080500860BFF34F8FBFF36F8FE5E7DF
:101E8000A542EBD800F088FEF0682746C068C46819
:101E9000201D00F0C7F92046FEF716FD94F8280033
:101EA000410711D5A0692B4641193A462046FFF754
:101EB0001FFF68B100200346014600902A462046D5
:101EC00000F0F2FE04E007E020F0010084F82800B2
:101ED000216A20468847B9E70127BFE7240100208F
:101EE00004ED00E00648416B096829B1416BC968FF
:101EF000C9684968816270474FF0FF31FAE7000016
:101F0000E800002070B5054600F074FD064E04465A
:101F1000B068844203D200F009F8012000E00020FC
:101F200028602046B46070BD24010020F8B5164D2D
:101F300022E0C068C4680668201D00F073F92046DE
:101F4000FEF7C2FC216A2046884794F82800400723
:101F500012D5A0693044B04206D924616060211DC9
:101F6000E86800F096F907E000200346014600907B
:101F70003246204600F098FEE86801680029D8D172
:101F80002969C5E90310F8BD24010020102080F361
:101F90001188BFF34F8FBFF36F8FFEE7074CE068E8
:101FA000016841B1C0680021D0F80000FFF740FF90
:101FB000FFF7C8FEF3E701210020F7E72401002026
:101FC0002DE9F041044600F089F994F9455004F1F7
:101FD000240609E0606A48B1304600F0A7FD08B168
:101FE00000F012FA6D1E6DB2002DF3DC4FF0FF36DB
:101FF00084F8456000F080F900F070F994F94450DD
:1020000004F1100709E0206948B1384600F08EFD60
:1020100008B100F0F9F96D1E6DB2002DF3DC84F803
:102020004460BDE8F04100F067B900002DE9F041DF
:102030000546002700F054FA254E306808B9FFF72E
:1020400079FD7069054239D1C5B30835680704D0F8
:1020500005F00700C0F1080005447DB370688542B3
:102060002CD81B48183001460C6801E020460C466D
:102070006168A94202D221680029F7D131688C42F7
:102080001CD007682168016060680837411B10296F
:1020900004D9601941606560FFF704FE61687068EB
:1020A000401A7060B268904200D2B060706901431B
:1020B0000020C4E90001F068401CF0602946384661
:1020C000FEF71EFB00F068FD3846BDE8F081000019
:1020D000C400002010B5031F4FF080741C601B1F4C
:1020E00021F001011960191F024B0B6014394038AF
:1020F0000A6010BD8D1F000800B50246034800F0BD
:1021000003FEB0FBF2F102FB110000BDA8000020AD
:1021100070B50C46054600234FF4807605E0304646
:10212000FFF7EAFFE8545B1CDBB2A342F7D370BDB4
:1021300088B000201C4D1D4C069040F2266607908A
:102140000520FFF7D9FF00EB400005EBC001182286
:102150006846FEF76FF80098B04205D16420FFF79B
:10216000CBFF8DF8180003E0082106A8FFF7D0FF89
:102170000F48FEF71FFC0D4B6061103306AA69463D
:102180000B48FEF7A9FB607010B10120A07004E0BD
:102190004FF400510748FEF70FFEC820FFF7ACFFD1
:1021A00080B2FFF7FDFACBE73000002000000020EE
:1021B00038010020001001401CB50020164E009090
:1021C0006F46A6F10C04019020780546FEF756F8FC
:1021D0006D1D306025700020315C3954401C04288E
:1021E000FADB0E48FEF7E6FB0B4B60611B1D6A46EF
:1021F00003F108010948FEF76FFB607010B1012080
:10220000A07004E04FF400510548FEF7D5FD4FF4EF
:102210007A70FFF7C5FAD7E70C00002038010020DC
:1022200000100140D0E9013201699A60D0E9012330
:102230005A604A68824201D182684A600022026183
:102240000868401E0860086870470000034B036080
:1022500003F15C000860802010607047A40100203A
:10226000034B036003F15C0008605020106070476E
:1022700000040020704700F108014FF0FF32C0E970
:102280000112C160016100210160704700210161FC
:10229000704730B50B685A1C02D000F1080202E00A
:1022A000026904E02246546825689D42FAD95368C1
:1022B0004B6099608A60516008610168491C016047
:1022C00030BD42684A6093688B6093685960916042
:1022D00008610168491C016070470000102080F30C
:1022E0001188BFF34F8FBFF36F8F02480168491CFD
:1022F00001607047E400002003490868401E086040
:1023000001D180F311887047E400002070B5061EEB
:102310001ED0104DA6F1080460686969084217D004
:102320002268002A14D18843606000F0D9F86168FF
:102330006868084468603046FEF7DAF92046FFF71F
:10234000B1FC2869401C2861BDE8704000F024BC45
:1023500070BD0000C40000204FF0E02000210161AA
:10236000816105494FF47A720968B1FBF2F1491EA7
:102370004161072101617047B800002070B5154622
:102380000E460446FFF7AAFF94F944100020491CAA
:1023900001D184F8440094F94510491C01D184F816
:1023A0004500FFF7A9FFA06B28B92A46314604F182
:1023B000240000F03FF82046BDE87040FFF700BE63
:1023C00010B504000CD000F08BF82046FEF734FA6C
:1023D00000212046FFF792FA00F0DEFB002807D12B
:1023E00004494FF080500860BFF34F8FBFF36F8FE9
:1023F00010BD000004ED00E002490A6A0260C968ED
:1024000041607047E800002001490120C861704721
:10241000E800002010B50C46054909681831FFF79F
:1024200038FF2046BDE810400121FFF767BA0000E1
:10243000E800002070B50A4E0C4615463168183188
:10244000FFF73FFF0DB14FF0FF34F0682044FEF777
:10245000FBF929462046BDE87040FFF74FBA00005F
:10246000E800002030B587B00025039505AA04A92F
:1024700003A80495FFF7EAFEDDE903010095CDE925
:102480000110002312A11448059A00F08AFA134C97
:102490000028E06219D000F0DDFB012815D11020E2
:1024A00080F31188BFF34F8FBFF36F8F4FF0FF3072
:1024B000A06201206061E56021692068FEF7DCF917
:1024C00007B0BDE8304000F059B807B030BD00009B
:1024D00049444C45000000007D1B0008E800002036
:1024E0000248016B491C016370470000E8000020AE
:1024F00010B5204C206B10B10120E06110BD002010
:10250000E0612068FEF7C0F920684FF0A531006B4C
:1025100002688A4208D142688A4205D182688A42AA
:1025200002D1C068884204D0216820683431FFF7A6
:10253000A1FE2169104800E0491E01EB810250F81C
:102540002220002AF8D001EB810200EB820000F18A
:1025500008034268526842609A4201D15268426060
:10256000D0682060216121692068BDE81040FEF735
:1025700083B90000E80000207C340020094810B531
:10258000016841F47F010160016841F07F41016011
:10259000FFF7E2FE044900200860FDF7FFFD002080
:1025A00010BD000020ED00E0E400002010B5102078
:1025B00080F31188BFF34F8FBFF36F8F00F020FAC5
:1025C00018B104494FF080500860002080F3118852
:1025D00010BD000004ED00E038B51C00049D07D0DC
:1025E000012384F846302B460094FFF7F7FA02E007
:1025F0002846FEF7A3F8204638BD000070B50D460A
:102600000446FFF76BFED4E90F12206801FB0200BD
:10261000A0600020A063206860600146E06B401E5F
:1026200000FB0210E0604FF0FF3084F8440084F8B3
:10263000450004F110004DB1FFF71DFE04F1240028
:10264000FFF719FEFFF758FE012070BD2169002930
:10265000F8D000F06BFA0028F4D004494FF0805015
:102660000860BFF34F8FBFF36F8FEBE704ED00E01F
:102670002DE9FF4700273F4E82B099468A4604461F
:10268000B8464FF0805500BFFFF728FEA06BE16B06
:10269000884206D3B9F1020F03D00498D8B1EFB144
:1026A00020E02046FEF75EF84A4651462046FFF7F6
:1026B000FAF9616A19B104F1240000F037FA20B187
:1026C0003560BFF34F8FBFF36F8FFFF715FE01200B
:1026D00006B0BDE8F087FFF70FFE21E06846FFF780
:1026E0008BFE0127FFF708FEFFF7FAFEFFF7F6FD66
:1026F00094F94400401C01D184F8448094F94500C9
:10270000401C01D184F84580FFF7F6FD04A9684616
:1027100000F0F2F848B12046FFF752FC00F03CFA16
:102720002046FEF727F80020D2E7FFF7D7FDA06B81
:10273000E16B884216D1FFF7DFFD2046FDF7EEFF83
:1027400004F110000499FFF765FE2046FFF738FCFE
:1027500000F022FA002897D13560BFF34F8FBFF306
:102760006F8F91E7FFF7C8FD2046FFF729FC00F0C7
:1027700013FA89E704ED00E02DE9F0470446984696
:10278000174689461020EFF3118680F31188BFF3B6
:102790004F8FBFF36F8FA16BE06B81420AD3B8F10B
:1027A000020F07D02046FDF7F3FF002086F31188C3
:1027B000BDE8F08794F94550A06B2046FDF7E0FF97
:1027C000424649462046FFF76EF9681C04D06D1C4E
:1027D00084F845500120E9E7606A0028FAD004F146
:1027E000240000F0A3F90028F4D0002FF2D001203B
:1027F0003860EFE72DE9F7470026DFF8F88083B06F
:102800008A460446B1464FF0805700BFFFF766FD89
:10281000A56BDDB151462046FFF732F92046FDF7A2
:1028200093FF6D1EA563206950B104F1100000F004
:102830007DF928B1C8F80070BFF34F8FBFF36F8FD9
:10284000FFF75AFD012006B0BDE8F087059808B1F2
:102850001EB106E0FFF750FD27E06846FFF7CCFD0C
:102860000126FFF749FDFFF73BFEFFF737FD94F91F
:102870004400401C01D184F8449094F94500401C68
:1028800001D184F84590FFF737FD05A9684600F0AF
:1028900033F8002820460DD0FFF792FB00F07CF9BA
:1028A0002046FFF741FA0028B0D02046FDF754FF3C
:1028B0000020C8E7FFF738FA0028204614D0FDF7BB
:1028C00025FF04F124000599FFF7A4FD2046FFF73A
:1028D00077FB00F061F9002898D1C8F80070BFF3C9
:1028E0004F8FBFF36F8F91E7FFF76AFB00F054F94A
:1028F0008CE7000004ED00E02DE9F0410C460546B0
:10290000FFF7ECFC0F4BDA686E682168901B4F1CD8
:1029100007D02F681B6A9F4209D0964207D801242E
:1029200000E00024FFF7E8FC2046BDE8F08181428A
:1029300005D9081A20602846FFF75EFDF1E7002060
:102940002060ECE7E80000202DE9FF5F8346DDE929
:102950000E87994616468A469000FFF767FB0500EA
:102960001CD05C20FFF762FB040014D0002025631C
:1029700084F85900CDE90240CDE900874B46324644
:1029800051465846FFF740F92046FEF7E5FF012083
:1029900004B0BDE8F09F2846FFF7B8FC4FF0FF30C9
:1029A000F6E7F0B585B00026DDE90B540A9F7CB14F
:1029B00075B12563022584F8595004AD009703963C
:1029C000CDE90154FFF720F92046FEF7C5FF00E0EE
:1029D0000496049805B0F0BD0548416919B1006B33
:1029E00018B1002070470120704702207047000096
:1029F000E80000200148C06870470000E80000209F
:102A00002DE9F0412D4C0026E068FDF725FF206BF5
:102A100028B1A069401CA0613046BDE8F081E5689E
:102A20006D1CE56008D1606BA16B6163A063206AD7
:102A3000401C2062FFF756FAA06ADFF884808542C6
:102A400009D3606B0068A0B1606BC068C768786824
:102A5000854211D2A0622068C06A00EB800158F85C
:102A60002100012800D90126E0690028D4D00126E0
:102A7000D2E74FF0FF30EDE7381DFFF7D3FBB86A20
:102A800018B107F11800FFF7CDFB3846FDF7BEFE81
:102A9000F86A2169884200D9206100EB800108EBC7
:102AA0008100391DFFF70DFC3846FDF7B7FEF86AC7
:102AB0002168C96A8842C4D30126C2E7E800002021
:102AC0007C34002010B504004FF0000128D0206DA8
:102AD000401E2065E36CE26A9A4221D000BB201DB3
:102AE000FFF7A0FB2046E16CFDF7BEFEE06CE06264
:102AF000C0F13800A0612046FDF788FE0949E06A70
:102B00000A69904200D90861074900EB800001EB97
:102B10008000211DFFF7D5FB2046FDF77FFE012138
:102B2000084610BDE80000207C34002070B5C06865
:102B3000C46804F118000646FFF774FB134D286BB8
:102B400058B131461248FFF7BCFBE06A2968C96AF0
:102B5000884219D90120E86170BD201DFFF762FB92
:102B60002046FDF753FEE06A2969884200D92861B2
:102B7000084900EB800001EB8000211DFFF7A1FB5D
:102B80002046FDF74BFEE0E7002070BDE800002086
:102B9000043900207C3400202DE9F047002427462A
:102BA000FFF79CFB284D286B401E2863286BE8BB71
:102BB000A968264E0120C9B3A6F591698046306800
:102BC00010B3F068C46804F11800FFF72BFB201D58
:102BD000FFF728FB2046FDF719FEE06A29698842C5
:102BE00000D9286100EB800109EB8100211DFFF76E
:102BF00068FB2046FDF712FEE06A2968C96A884230
:102C0000DDD3C5F81C80DAE70CB1FFF76BF9AC69CE
:102C100044B14646FFF7F4FE00B1EE61641EF9D1FF
:102C20000020A861E86908B1012700E006E0084932
:102C300038070860BFF34F8FBFF36F8FFFF75CFB60
:102C40003846BDE8F0870000E80000200439002085
:102C500004ED00E030B587B00024FEF7EDFE0E4D28
:102C60002868A8B100200390049005AA04A903A82D
:102C7000FFF7F6FADDE9032128208DE8070000239D
:102C800006A10848059AFFF78CFE686000B1012490
:102C900007B0204630BD000024010020546D722092
:102CA000537663009D1F00082DE9FF47154D8046B0
:102CB000DDF8309028689C4617460E460024A0B1E7
:102CC0008DE8C001062E16DAFFF786FE022823469D
:102CD0000FD0002269462868FFF7CAFC0446034665
:102CE0003A4631464046FDF7E3FD04B02046BDE8D4
:102CF000F0874A46EEE7002362466946FFF73CFD4F
:102D0000ECE7000024010020016881EA413181EAFA
:102D1000514181EA4111016008467047A42D000825
:102D200000000000000000000000000000000000A3
:102D30000002000028000000000000000000000069
:102D4000942D0008000000000000000000000000BA
:102D50000000000000020000280000000000000049
:102D60000000000000000000000000000102030459
:102D70000607080900000000010203040100010128
:102D80004000000000480020004C0020804C002043
:102D90000000000073656E644D6F746F7243414EA6
:102DA0004D73670073656E64426174746572794334
:102DB000414E4D7367000000D82D00080000002030
:102DC0003801000018030008082E00083801002010
:102DD000D03C00003E17000802170AE30B057208FA
:102DE000E322067207DA2318690F0A1524180A1558
:102DF00026480A152730320332018210032924F4B1
:082E00001AAA010150000000B4
:04000005080000ED02
:00000001FF
